:100000000C946B000C9493000C9493000C9493004C
:100010000C9493000C9493000C9493000C94930014
:100020000C9493000C9493000C9493000C94930004
:100030000C9493000C9493000C9493000C949300F4
:100040000C94A6150C9493000C9474150C944E15F6
:100050000C9493000C9493000C9493000C949300D4
:100060000C94F0150C9493007C3C3E5E2B3D3F2F8E
:100070005B5D3B2C2A225C00000000002300260070
:10008000290000000008000201000003040700002E
:1000900000000000000000000000240027002A00EB
:1000A00000000000250028002B00040404040404C0
:1000B0000404020202020202030303030303010217
:1000C00004081020408001020408102001020408E6
:1000D00010202217DA2011241FBECFEFD8E0DEBF98
:1000E000CDBF13E0A0E0B1E0E2E5F9E402C0059085
:1000F0000D92A634B107D9F727E0A6E4B3E001C01A
:100100001D92A731B207E1F710E0CAE6D0E004C0C3
:100110002197FE010E948322C936D107C9F70E94A8
:10012000B0170C949C240C940000CF93DF93FC0137
:10013000828193819093F9068093F806848195815A
:10014000A681B7818093FA069093FB06A093FC06E4
:10015000B093FD0680859185A285B3858093FE06C8
:100160009093FF06A0930007B0930107DF011C9650
:10017000CF014996C2E0D7E02D912993A817B9077E
:10018000D9F7818D928D9093100780930F0786EF9A
:1001900096E0DF91CF910895AF92BF92CF92DF9218
:1001A000EF92FF920F931F93CF93DF936C017B012C
:1001B0008B01040F151FEB015E01AE18BF08C017BD
:1001C000D10759F06991D601ED91FC910190F08130
:1001D000E02DC6010995892B79F7C501DF91CF91F3
:1001E0001F910F91FF90EF90DF90CF90BF90AF9055
:1001F0000895FC01538D448D252F30E0842F90E02D
:10020000821B930B541710F0CF9608950197089511
:10021000FC01918D828D981761F0A28DAE0FBF2FDA
:10022000B11D5D968C91928D9F5F9F73928F90E030
:1002300008958FEF9FEF0895FC01918D828D98179F
:1002400031F0828DE80FF11D858D90E008958FEFDC
:100250009FEF0895FC01918D228D892F90E0805CA5
:100260009F4F821B91098F739927089582EF95E024
:100270000E942A0121E0892B09F420E0822F0895B1
:1002800080E090E0892B29F00E94360181110C94C6
:1002900000000895FC01A48DA80FB92FB11DA35A29
:1002A000BF4F2C91848D90E001968F739927848F96
:1002B000A689B7892C93A089B1898C9183708064B9
:1002C0008C93938D848D981306C00288F389E02D5A
:1002D00080818F7D80830895EF92FF920F931F930B
:1002E000CF93DF93EC0181E0888F9B8D8C8D9813E9
:1002F0001AC0E889F989808185FF15C09FB7F894F5
:10030000EE89FF896083E889F98980818370806440
:1003100080839FBF81E090E0DF91CF911F910F918B
:10032000FF90EF900895F62E0B8D10E00F5F1F4F9A
:100330000F731127E02E8C8D8E110CC00FB607FCA9
:10034000FACFE889F989808185FFF5CFCE010E9437
:100350004A01F1CFEB8DEC0FFD2FF11DE35AFF4F5A
:10036000F0829FB7F8940B8FEA89FB8980818062C5
:10037000CFCFCF93DF93EC01888D8823B9F0AA8982
:10038000BB89E889F9898C9185FD03C0808186FD50
:100390000DC00FB607FCF7CF8C9185FFF2CF80819F
:1003A00085FFEDCFCE010E944A01E9CFDF91CF91C9
:1003B0000895833081F028F4813099F08230A9F0DB
:1003C00008958730A9F08830C9F08430B1F4809165
:1003D00080008F7D03C0809180008F7780938000A4
:1003E000089584B58F7784BD089584B58F7DFBCF44
:1003F0008091B0008F778093B00008958091B00015
:100400008F7DF9CFCF93DF93282F30E0F901EE579E
:10041000FF4F8491F901E254FF4FD491F901E65561
:10042000FF4FC491CC23A1F081110E94D901EC2F80
:10043000F0E0EE0FFF1FE858FF4FA591B491EC914B
:10044000ED2381E090E009F480E0DF91CF91089501
:1004500080E090E0FACF1F93CF93DF93282F30E016
:10046000F901EE57FF4F8491F901E254FF4FD49107
:10047000F901E655FF4FC491CC23A9F0162F811145
:100480000E94D901EC2FF0E0EE0FFF1FE056FF4F66
:10049000A591B4918FB7F894EC91111108C0D09543
:1004A000DE23DC938FBFDF91CF911F910895DE2B68
:1004B000F8CFCF93DF9390E0FC01E254FF4F2491FB
:1004C00086559F4FFC0184918823D1F090E0880FDE
:1004D000991FFC01EA56FF4FA591B491FC01E0562B
:1004E000FF4FC591D49161110EC09FB7F8948C91C4
:1004F000E22FE0958E238C932881E223E8839FBF2F
:10050000DF91CF9108958FB7F894EC91E22BEC93A3
:100510008FBFF6CF3FB7F8948091C3039091C40387
:10052000A091C503B091C60326B5A89B05C02F3F77
:1005300019F00196A11DB11D3FBFBA2FA92F982F09
:100540008827BC01CD01620F711D811D911D42E004
:10055000660F771F881F991F4A95D1F708958F92CC
:100560009F92AF92BF92CF92DF92EF92FF924B0198
:100570005C010E948A026B017C010E948A026C1954
:100580007D098E099F09683E734081059105A8F396
:1005900021E0821A9108A108B10888EEC80E83E014
:1005A000D81EE11CF11C81149104A104B10429F7A7
:1005B000FF90EF90DF90CF90BF90AF909F908F9083
:1005C00008952FB7F8946091BF037091C003809194
:1005D000C1039091C2032FBF08958FB7F894809103
:1005E000B8038FBF089561E0FC0184810E942B0253
:1005F0008091B70381111092B70308958EBD00005A
:100600000DB407FEFDCF8EB508958FEF0C94FE025A
:100610000F931F93CF93DF93EC010E94E1028B01B4
:100620000E9405038F3F69F00E94E102601B710B7D
:100630006C177D07A8F380E0DF91CF911F910F9198
:10064000089581E0F9CF8CBD9DBD0895CF93DF93D0
:10065000EC018091B703811109C081E08093B70359
:1006600080918F06909190060E94230360E08C8118
:10067000DF91CF910C942B028F929F92AF92BF92F9
:10068000FF920F931F93CF93DF93EC01F62E490156
:100690005A018E81882389F08F8198859C012F5F74
:1006A0003F4F38872F838230924018F40E94050311
:1006B000F3CFCE010E94F3021E82CE010E942603D8
:1006C0008CE291E00E9408038F2D80640E94FE025C
:1006D00008E110E0D501C401002E04C0B695A7952D
:1006E000979587950A94D2F70E94FE020850110947
:1006F000083F8FEF180771F785E9FF2021F028E008
:1007000087E8F2128FEF0E94FE0210E00E940503BC
:100710008A8787FF04C01F3F11F01F5FF7CFDF916B
:10072000CF911F910F91FF90BF90AF909F908F90AE
:100730000895AF92BF92CF92DF92EF92FF920F9304
:100740001F93CF93DF93EC016901C801820F931FC0
:100750008130924050F58E81882379F0888199818B
:10076000AA81BB8184179507A607B70731F48F814B
:100770009885C816D90608F042C0488359836A8311
:100780007B838B85833039F089E0440F551F661FCA
:10079000771F8A95D1F79A01AB0161E1CE010E94E2
:1007A0003C03882389F083E08D83CE010E94F3020D
:1007B00080E0DF91CF911F910F91FF90EF90DF903C
:1007C000CF90BF90AF9008950E94E1025B010E941C
:1007D00005038A878F3F69F40E94E1026A197B0949
:1007E0006D327140A0F38FE08D83CE010E94F30241
:1007F000DCCF8E3F89F418861F8281E08E838F8143
:1008000098858C159D0550F40E9405038F8198856D
:10081000019698878F83F3CF8DE0E6CF6701E00ED6
:10082000F11E0E940503F60181936F01EE15FF058D
:10083000C1F78F819885080F191F18870F83898545
:10084000882319F001151240A0F08E81882389F0C9
:100850008F8198859C012F5F3F4F38872F8382308F
:10086000924018F40E940503F3CFCE010E94F302D8
:100870001E8281E09ECFCF92DF92EF92FF920F9384
:10088000CF93DF93EC01690182E1411551056105C8
:10089000710599F08B85833039F089E0440F551F3D
:1008A000661F771F8A95D1F79A01AB0168E1CE01E7
:1008B0000E943C03882319F084E08D832DC08EEFC5
:1008C0000E94FE0276018EEFD81AF70181917F0116
:1008D0000E94FE02EC14FD04C1F78FEF0E94FE029D
:1008E0008FEF0E94FE020E9405038A878F71853078
:1008F00071F4011116C0CE010E94F30281E0DF9174
:10090000CF910F91FF90EF90DF90CF90089581E10C
:100910008D83CE010E94F302CE010E94F30280E09B
:10092000EECF88E592E00E940803811102C085E1C4
:10093000C4CF20E030E0A9016DE0CE010E943C036D
:10094000882311F084E1B9CF0E9405038111FACF09
:10095000D2CF0F934091BA035091BB036091BC0377
:100960007091BD03411551056105710599F0082F7E
:1009700022EF33E08091F0039091F1030E943B0459
:10098000882349F01092BA031092BB031092BC0363
:100990001092BD0381E00F9108950F93CF93C82F5C
:1009A0008091B903811105C0C1E08C2FCF910F91C7
:1009B00008954091000150910101609102017091F0
:1009C00003010C2F22EF33E08091F0039091F103AB
:1009D0000E943B04811102C0C0E0E7CFCC2321F389
:1009E00081E00E94A9048823B9F31092B903DDCFF6
:1009F0008F929F92AF92BF92EF92FF920F931F93AD
:100A0000CF934B015C01C42F8091000190910101B3
:100A1000A0910201B091030188159905AA05BB05B3
:100A200051F181E00E94CD0481110BC080E0CF9193
:100A30001F910F91FF90EF90BF90AF909F908F907C
:100A4000089582EFE82E83E0F82E00E012E030E017
:100A500020E0B501A4018091F0039091F1030E9480
:100A60009903882319F38092000190920101A092CA
:100A70000201B09203014091B9034C2B4093B9039A
:100A800081E0D5CFCF93DF93EC016E857F85888998
:100A9000998941E00E94F804882351F08A8920E274
:100AA000829FC00111248E509C4FDF91CF910895F9
:100AB00090E080E0FACF8F929F92AF92BF92CF9258
:100AC000DF92EF92FF92CF9321E936E03093F1036A
:100AD0002093F003882309F46DC040E060E070E0EB
:100AE000CB010E94F80481110BC080E0CF91FF90F0
:100AF000EF90DF90CF90BF90AF909F908F90089530
:100B00008091B0058F7789F78091BC059091BD05E4
:100B1000A091BE05B091BF0584369105A105B10530
:100B200020F3C090B805D090B905E090BA05F090D8
:100B3000BB05C114D104E104F104B9F240E0C701DE
:100B4000B6010E94F804882381F28091FD03909100
:100B5000FE038115924049F6A0910204AA2329F2CE
:100B600060910004709101046115710509F4BDCF15
:100B70002091FF03222309F4B8CFA093AF0620935E
:100B8000A10690E080E030E0E1E0F0E0C82FAF01A6
:100B9000082E02C0440F551F0A94E2F724173507A8
:100BA00069F041E0480F01968930910579F740934B
:100BB000AA069BCFC12CD12C7601C0CF8093AA0668
:100BC000209108043091090450E040E021153105DE
:100BD00041F420911604309117044091180450916B
:100BE00019042093A2063093A3064093A4065093C1
:100BF000A50646015701860E971EA11CB11C8092C6
:100C0000B0069092B106A092B206B092B306E091FF
:100C10000304F0910404F093B606E093B506B0E047
:100C20000E94E021DC01CB01880D991DAA1DBB1D8E
:100C30008093B7069093B806A093B906B093BA060E
:100C400025E0EE0FFF1F2A95E1F7E150FE4FEF2F51
:100C5000FF27E6958E0F9F1FA11DB11D8093AB0648
:100C60009093AC06A093AD06B093AE0680900504B9
:100C700090900604B12CA12C8114910441F4809031
:100C8000120490901304A0901404B0901504C81A94
:100C9000D90AEA0AFB0AC80CD91CEA1CFB1C04C0CE
:100CA000F694E794D794C794CA95D2F7C092A60653
:100CB000D092A706E092A806F092A90685EFC81682
:100CC0008FE0D806E104F10428F48CE08093B406A8
:100CD00081E00CCF80E125EFC2162FEFD206E104B0
:100CE000F104A0F380911E0490911F04A0912004B0
:100CF000B09121048093B7069093B806A093B906EB
:100D0000B093BA0680E2E2CF4F925F926F927F92E9
:100D10008F929F92AF92BF92CF92DF92EF92FF920B
:100D20000F931F93CF93DF93EC0142305105610580
:100D3000710590F480E0DF91CF911F910F91FF90AA
:100D4000EF90DF90CF90BF90AF909F908F907F906B
:100D50006F905F904F90089589859A85AB85BC858B
:100D60000196A11DB11D84179507A607B70710F3BB
:100D7000CB88DC88ED88FE888F89803109F042C0FD
:100D8000BB27A72F962F852F480159012A013B0128
:100D9000C80ED91EEA1EFB1E809100019091010130
:100DA000A0910201B0910301C816D906EA06FB061C
:100DB00099F58F898031C1F5B301A20155276627C6
:100DC0007727440F551F4E505C4FFA019182808265
:100DD0008091B90381608093B9038A89823080F061
:100DE0008D819E81AF81B8858C0D9D1DAE1DBF1D6F
:100DF0008093BA039093BB03A093BC03B093BD034D
:100E000081E099CFDB01CA01E7E0B695A7959795F8
:100E10008795EA95D1F7B8CF40E0C701B6010E94A7
:100E2000F8048111C6CF86CFB301A2014F775527B1
:100E300066277727440F551F440F551F4E505C4FB0
:100E4000FA0180829182A282B382C2CF8F929F9256
:100E5000AF92BF92CF92DF92EF92FF920F931F93C8
:100E6000CF93DF93FC0181859285A385B48501969C
:100E7000A11DB11D84179507A607B70770F480E080
:100E8000DF91CF911F910F91FF90EF90DF90CF9066
:100E9000BF90AF909F908F90089583889488A58885
:100EA000B6888789803189F5BB27A72F962F852F94
:100EB000E9016A017B018F01BC01CD01680D791D3B
:100EC0008A1D9B1D8090000190900101A09002015D
:100ED000B090030186169706A806B90601F5F80139
:100EE0008789803111F5DD24EE24FF24F601EE0F11
:100EF000FF1FEE50FC4F80819181B0E0A0E088831D
:100F00009983AA83BB8381E0BBCFDB01CA01C7E021
:100F1000B695A79597958795CA95D1F7C9CF40E023
:100F20000E94F8048111DBCFAACFE894C7F8DD2432
:100F3000EE24FF24F601EE0FFF1FEE0FFF1FEE5011
:100F4000FC4F80819181A281B381BF70D8CF4F9235
:100F50005F926F927F92AF92BF92CF92DF92EF92A9
:100F6000FF920F931F93CF93DF9300D000D0CDB7A4
:100F7000DEB78C0149835A836B837C835901C12C72
:100F8000D12C7601412C82E0582E612C712C4981A4
:100F90005A816B817C819E012F5F3F4FC8010E9467
:100FA0002607882339F1F8018585A301920104C041
:100FB000220F331F441F551F8A95D2F7DA01C9014A
:100FC000C80ED91EEA1EFB1E49815A816B817C81A5
:100FD0008789803111F188EF9FEFAFEFBFE04817AD
:100FE00059076A077B0798F2F501C082D182E28235
:100FF000F38281E00F900F900F900F90DF91CF91CF
:101000001F910F91FF90EF90DF90CF90BF90AF9026
:101010007F906F905F904F90089588EF9FEFA0E0D2
:10102000B0E0DDCFCF93DF93FC012581222321F0B7
:1010300080E0DF91CF910895EC018091B40680317A
:1010400059F582E08583178A108E118E128E809159
:10105000B5069091B606B0E0A0E025E0880F991F94
:10106000AA1FBB1F2A95D1F7838B948BA58BB68BB8
:101070008DE996E09C8F8B8F81E08C831E821F828E
:10108000188619861A861B861C861D861E861F8654
:10109000188A198A1A8ACDCF803251F683E0858367
:1010A0004091B7065091B8066091B9067091BA06A2
:1010B000478B508F618F728F9F012D5E3F4F8DE95F
:1010C00096E00E94A7078111D3CFB2CF8F929F9253
:1010D000AF92BF92CF92DF92EF92FF920F931F9346
:1010E000CF93DF93EC018D8181110EC080E0DF9101
:1010F000CF911F910F91FF90EF90DF90CF90BF9015
:10110000AF909F908F9008950B891C892D893E89FF
:10111000041715072607370748F34A015B01823099
:1011200031F48A869B86AC86BD8681E0E0CF81144F
:101130009104A104B10449F41E821F821886198605
:101140001A861B861C861D86F0CF0A851B852C857A
:101150003D85EB8DFC8D858590E00996B901A80150
:101160004150510961097109082E04C076956795AF
:10117000579547950A94D2F775016401E1E0CE1ABC
:10118000D108E108F10804C0F694E794D794C79415
:101190008A95D2F7C416D506E606F70620F0012B8D
:1011A000022B032B11F58F89988DA98DBA8D8E8313
:1011B0009F83A887B9878E010A5F1F4FC114D1048E
:1011C000E104F10409F4ADCF4E815F816885798532
:1011D00098018B8D9C8D0E94260791E0C91AD10839
:1011E000E108F1088111EACF81CFC41AD50AE60AD5
:1011F000F70AE1CF3F924F925F926F927F928F9268
:101200009F92AF92BF92CF92DF92EF92FF920F9395
:101210001F93CF93DF93CDB7DEB72C970FB6F8941B
:10122000DEBF0FBECDBF5C01DC015B968D909C9054
:101230005C9716964D905D906D907C901997411437
:1012400051046104710409F468C0BFEF4B1A5B0AD2
:101250006B0A7B0A312CF40181859285A385B485C4
:101260009C01AD012F5F3F4F4F4F5F4F29873A875A
:101270004B875C87730162011D821E821F82188664
:10128000F40181859285A385B4852D813E814F81AE
:101290005885281739074A075B0708F056C0898523
:1012A0009A85AB85BC858C159D05AE05BF0550F4B0
:1012B00082E0C82ED12CE12CF12C92E0492E512C49
:1012C000612C712C9E012F5F3F4FB701A601C40115
:1012D0000E9426078823C9F189819A81AB81BC814C
:1012E000892B8A2B8B2B09F1260137019FEF491A95
:1012F000590A690A790A2D813E814F8158852F5FED
:101300003F4F4F4F5F4F2D833E834F8358873FEFB3
:10131000C31AD30AE30AF30AB3CFF4014080518021
:10132000628073803324339496CFC414D504E604CA
:10133000F70409F70FEF1FEF2FEF3FE0B701A6010A
:10134000C4010E948406811119C080E02C960FB65A
:10135000F894DEBF0FBECDBFDF91CF911F910F91EB
:10136000FF90EF90DF90CF90BF90AF909F908F90C5
:101370007F906F905F904F903F900895D5011696A3
:101380004D915D916D917C911997411551056105C4
:10139000710539F097018601C4010E9484068823F3
:1013A000A1F2D5011696CD92DD92ED92FC9219979D
:1013B000332051F0D701C6010196A11DB11DF401E2
:1013C00080839183A283B383F5018789908DA18D5A
:1013D000B28D892B8A2B8B2B39F48481C78AD08ECE
:1013E000E18EF28E80688483F5018481806284833B
:1013F00081E0ACCF1F93CF93DF93FC0125812223A3
:1014000071F1162FEC01848187FF1EC0CF010E946D
:101410004205FC01892B19F18D81823040F48B89C2
:101420009C89AD89BE89848F958FA68FB78F8F8950
:10143000988D938F828F8F89988DA98DBA8DB58B5A
:10144000A48B8C818F778C83111103C08C818F7E4C
:101450008C83812FDF91CF911F910C94CD0480E07C
:10146000DF91CF911F910895FF920F931F93CF9318
:10147000DF93EC018D81813041F090E080E0DF91DD
:10148000CF911F910F91FF9008958C8181FFF5CF2F
:1014900082FD1BC00091F0031091F103C8010E946E
:1014A00026030E940503F82EC8010E94F3028FEF65
:1014B000F812E3CF8C8185FF1BC060E0CE010E9453
:1014C000FA098C818F7D8C83D8CF4B895C896D899B
:1014D0007E898A859B85AC85BD8584179507A6077F
:1014E000B707C1F2CE010E9466088111D3CFC5CFE4
:1014F0004091BA035091BB036091BC037091BD034E
:10150000452B462B472B21F080E00E94A904B5CF44
:1015100080618C832A853B85317080E092E0821B5C
:10152000930BADCFCF93DF93EC0161E00E94FA09FA
:10153000882311F01D8281E0DF91CF9108952F92D1
:101540003F924F925F926F927F928F929F92AF9253
:10155000BF92CF92DF92EF92FF920F931F93CF93A0
:10156000DF9300D000D01F92CDB7DEB77C015B01C6
:10157000342E5D83DC0115968C911597813009F02E
:10158000CEC014962C9021FECAC022FCB4C0C32C3D
:10159000DD8022947FE027222094B22DB1702B2E83
:1015A000D7011A964D915D916D917C911D97C11453
:1015B000D10409F428C15B968D919C915C97FC0144
:1015C00074807A948A019B0169E036952795179576
:1015D00007956A95D1F770228A011170711020C0A9
:1015E00001151105E9F416964D915D916D917C916F
:1015F0001997411551056105710509F099C0579674
:101600008D919D910D90BC91A02D0097A105B105E4
:1016100009F0B0C0C7010E94FA08882309F47FC00E
:1016200080E092E0801B910B46018C159D0508F42B
:101630004C01D7015B964D915C915C9716968D910C
:101640009D910D90BC91A02D0297A109B109FA01BD
:10165000258504C0880F991FAA1FBB1F2A95D2F7A2
:101660004685578560897189840F951FA61FB71F0E
:101670009C01AD01270D311D411D511D29013A016C
:10168000811432E0930609F07BC0809100019091B3
:101690000101A0910201B091030184159505A605F1
:1016A000B70559F48FEF9FEFDC0180930001909311
:1016B0000101A0930201B0930301022D9501B30132
:1016C000A2018091F0039091F1030E943B048823D2
:1016D00031F19EEFB91AC818D908F70182859385B0
:1016E000A485B585880D991DA11DB11D828793879D
:1016F000A487B58755CFF7014389548965897689D1
:1017000082859385A485B585481759076A077B07A5
:1017100009F43DCFC7010E946608811138CF81E0EE
:1017200090E0D70113969C938E93129780E007C0A8
:101730009E012F5F3F4F0E942607811102C090E05B
:1017400079C089819A81AB81BC81F701238D348D69
:10175000F901278948EF5FEF60E070E0203121F068
:1017600048EF5FEF6FEF7FE084179507A607B70795
:1017700008F050CFF70186839783A087B18750CFB9
:101780000115110599F5D7011A964D915D916D914D
:101790007C911D9753968D919D910D90BC91A02D9C
:1017A000481759076A077B0708F181E00E94CD04BA
:1017B000882309F4B4CF4092000150920101609255
:1017C0000201709203018091B90381608093B90393
:1017D000C8018E509C4FD5019C01280D391DFC017C
:1017E0002E173F0759F04D914193FACF41E0C301C5
:1017F000B2010E94F8048111EBCF91CF281B390B65
:10180000A20EB31E68CFF70183899489A589B68992
:1018100084179507A607B70738F48481438B548B48
:10182000658B768B80688483F701848183FD1AC081
:10183000832D9D810F900F900F900F900F90DF914F
:10184000CF911F910F91FF90EF90DF90CF90BF90BD
:10185000AF909F908F907F906F905F904F903F9050
:101860002F90089561E0C7010E94FA09882309F4C6
:1018700056CFDECFCF93DF931F92CDB7DEB769830C
:1018800041E050E0BE016F5F7F4F0E949F0A0F90C2
:10189000DF91CF910895FC01DB0112968D919C910F
:1018A0001397938382838CE291E0918380831496D3
:1018B0008C911497848315968C9115978583169631
:1018C0004D915D916D917C91199746835783608707
:1018D00071871A964D915D916D917C911D9742870C
:1018E0005387648775871E964D915D916D917C91AC
:1018F000519746875787608B718B52968C91529780
:10190000828B53964D915D916D917C915697438B4F
:10191000548B658B768B57964D915D916D917C9133
:101920005A97478B508F618F728F5B968D919C91E8
:10193000948F838F0895FC01818D928D009719F00B
:1019400061E00C94FA090895DC015996ED91FC913F
:101950003097B9F083899489A589B68942855385E2
:1019600064857585841B950BA60BB70B811520E844
:101970009207A105B10538F08FEF9FE7A0E0B0E036
:10198000089590E080E00895DC0159968D919C9136
:10199000009739F0DC01ED91FC910480F581E02D98
:1019A000099490E080E00895CF93DF93EC01E98DF6
:1019B000FA8D309749F481E090E09B838A8390E030
:1019C00080E0DF91CF91089513821282898D9A8DE4
:1019D0000E949F0AE98DFA8D22813381232B59F7CA
:1019E000F0CFCF93DF931F92CDB7DEB76983DC01D1
:1019F000ED91FC910280F381E02D41E050E0BE01C9
:101A00006F5F7F4F09950F90DF91CF9108952F92CF
:101A10003F924F925F926F927F928F929F92AF927E
:101A2000BF92CF92DF92EF92FF920F931F93CF93CB
:101A3000DF9300D01F92CDB7DEB7FC018581811105
:101A400018C08FEF9FEF0F900F900F90DF91CF9105
:101A50001F910F91FF90EF90DF90CF90BF90AF90CC
:101A60009F908F907F906F905F904F903F902F90BE
:101A70000895848180FFE5CF4389548965897689FB
:101A800082859385A485B585312C212C481759076B
:101A90006A077B0719F022242394312C6F0121015E
:101AA000CE0101963C01DF011696BB83AA83411447
:101AB000510409F4C5C0F6014285538564857585D6
:101AC0004A01F1E09F22D6015B968D919C915C9733
:101AD0008A019B01E9E03695279517950795EA95C8
:101AE000D1F71596EC91E230E9F5FC01628D738D2A
:101AF000848D958D600F711F821F931FA12C22E092
:101B0000B22EA818B9084A145B0408F45201F60171
:101B1000248126FD04C0A114F2E0BF0671F40091F7
:101B2000000110910101209102013091030106177B
:101B300017072807390709F05EC040E00E94F80443
:101B4000882309F47ECFC4018E509C4FD3019C01A1
:101B50002A0D3B1DFC012E173F0709F46CC0419173
:101B60004D93F9CFDC011496BC90BA94B022811445
:101B7000910479F4B1100DC0452B462B472B69F524
:101B8000F6018789908DA18DB28D86839783A0877A
:101B9000B187D6015B96ED91FC915C9716966D919D
:101BA0007D918D919C9119976250710981099109DC
:101BB000258504C0660F771F881F991F2A95D2F7C5
:101BC0000685178520893189600F711F821F931F39
:101BD0006B0D711D811D911D91CFD60116964D91F2
:101BE0005D916D917C9119972A813B810E94260716
:101BF0008111CFCF26CF730185019401AB01BC01C8
:101C00008091F0039091F1030E949903882309F4D5
:101C100018CF6A0C7B1CF60182859385A485B58557
:101C20008A0D9B1DA11DB11D82879387A487B5874F
:101C30004A185B083CCF281B390B620E731EEBCF92
:101C40002A94232809F0FDCE898190E0FCCEFC0186
:101C5000818D928D009711F00C94070D8FEF9FEFFF
:101C600008950F931F93CF93DF93EC01898D9A8D85
:101C700010E000E0009799F00E94070D8C010F3FE3
:101C8000100769F0898D9A8DFC0142855385648522
:101C9000758541505109610971090E946608C801A2
:101CA000DF91CF911F910F91089508950895DC0160
:101CB000ED91FC910684F785E02D41E0099581E0E6
:101CC00090E00895DC01ED91FC910684F785E02D0C
:101CD00040E00994CF93DF93CDB7DEB728970FB6D6
:101CE000F894DEBF0FBECDBF40910E0150910F01A1
:101CF00060911001709111014D835E836F8378872D
:101D000040911201509113016091140170911501DD
:101D100049835A836B837C832091E706821710F0F6
:101D20008FEF820F90E03091E8068C0F9D1FFC0131
:101D3000303181F4243071F46181606880EE96E086
:101D400028960FB6F894DEBF0FBECDBFDF91CF91BE
:101D50000C94620E6581F1CF0F931F93CF93DF93A5
:101D6000EC01423018F08C8188608C834F83688747
:101D7000222329F0413019F48C8184608C8364E63D
:101D800070E080E090E00E94AF026C8164FD55C07D
:101D9000E881F9810684F785E02D42E063E0CE0119
:101DA00009950BE416E4C8010197F1F7E881F98180
:101DB0000684F785E02D42E063E0CE010995C80175
:101DC0000197F1F7E881F9810684F785E02D42E07B
:101DD00063E0CE01099583E592E00197F1F7E88190
:101DE000F9810684F785E02D42E062E0CE01099595
:101DF0006C816062CE010E94620E84E08D836CE093
:101E0000CE010E94620E61E0CE010E94620E8BE361
:101E10009FE10197F1F782E08E8366E0CE010E9498
:101E2000620EE881F9810484F585E02D6FEFCE0123
:101E3000DF91CF911F910F9109946062CE010E94B2
:101E4000620E8BE496E40197F1F76C816062CE013B
:101E50000E94620E83E592E00197F1F76C81606267
:101E6000CE010E94620EC4CF089508950895209176
:101E70006D03260F3327331F21323105ECF42091F7
:101E80009103FC0190E080E0243069F082E0089545
:101E9000A0916D032191AC01435B5C4FA40FB52F62
:101EA000B11D2C930196861798F380916D03680FEE
:101EB00060936D0380E0089581E0089508958FEFA9
:101EC0009FEF08958FEF9FEF08958091460390E074
:101ED0009195819591090895CF93DF93CB01EA0104
:101EE000642F0E94370FCE01DF91CF910895CF93D9
:101EF000DF931F92CDB7DEB7698361E0CE01019613
:101F00000E94370F81E090E00F90DF91CF9108950C
:101F100090E080E008958F929F92AF92BF92CF920F
:101F2000DF92EF92FF920F931F93CF93DF9300D036
:101F300000D0CDB7DEB7FC018581813091F080E023
:101F40000F900F900F900F90DF91CF911F910F91F5
:101F5000FF90EF90DF90CF90BF90AF909F908F90C9
:101F60000895848181FFEBCF83899489A589B689FF
:101F7000892B8A2B8B2B09F45FC07F0140E050E056
:101F8000BA01CF010E9466088823C9F2F701C38C09
:101F9000D48C8788908CA18CB28C82E090E0A0E0F9
:101FA000B0E0F60180839183A283B3839E012F5F0B
:101FB0003F4FB501A401C6010E942607882309F4FA
:101FC000BECF00E010E09801B501A401C6010E9457
:101FD0008406882309F4B3CF89809A80AB80BC80C3
:101FE000F6018789803119F188EF9FEFAFEFBFE0ED
:101FF00088169906AA06BB06C8F2F701178A108E42
:10200000118E128E138A148A158A168A848180682A
:10201000848361E0C7010E94FA09882309F48FCF05
:1020200040E050E0BA01C7010E94660889CF88EFFE
:102030009FEFA0E0B0E0DCCF81E082CFCF92DF92D3
:10204000EF92FF921F93CF93DF93EC0180E2689FA2
:10205000F0011124EE50FC4F9385917161F0842FB3
:10206000827449F080E0DF91CF911F91FF90EF9053
:10207000DF90CF900895142F6A8B8091000190918A
:102080000101A0910201B09103018E879F87A88B67
:10209000B98BC488D588F12CE12C7601DD24CC24C1
:1020A000CF8AD88EE98EFA8E828D938DB0E0A0E033
:1020B000AC01BD014C295D296E297F294F8B588FBA
:1020C000698F7A8F83858871B1F4848D958DA68D03
:1020D000B78D8B8B9C8BAD8BBE8B81E08D831F70FE
:1020E0001C831E821F82188619861A861B861C86F0
:1020F0001D8681E0B8CF803109F0B4CF9E012D5EFE
:102100003F4F8B8D9C8D0E94A707882309F4AACF8F
:1021100084E0E4CFCF93DF93FC0184858823B1F082
:102120002289A089B1898785C585D6853FB7F8946E
:10213000988180958923888388E09C91922B9C9339
:102140009C9192279C938150C1F73FBF2289A0891F
:10215000B1893785C585D68588E0732F7095522F54
:1021600050954FB7F894988167FF1EC0932B9883C2
:10217000660F9C91922B9C939C9195239C934FBFAF
:10218000815079F79FB7F894A389B4898C912589F8
:10219000822B8C93A389B4898C91258982278C9377
:1021A0009FBFDF91CF9108959723E1CFFF920F93C7
:1021B0001F93CF93DF938C01C62FD0E0413031F1D4
:1021C000F12C423049F0BE017595679568776068DB
:1021D0006F29C8010E948A1083E0CC0FDD1F8A9509
:1021E000E1F76C2F687760686F29C8010E948A1038
:1021F000F8018485882369F083E290E00197F1F784
:10220000DF91CF911F910F91FF90089524E0F22E5E
:10221000DACF8FE390E0F2CFFB0101900020E9F7E5
:102220003197AF01461B570BDC01ED91FC91028009
:10223000F381E02D09940F931F93CF93DF93EC016B
:102240000E940C118C016AE571E0CE010E940C1114
:10225000800F911FDF91CF911F910F910895CF9320
:10226000DF93EC0188819981009711F00E9425236A
:10227000198218821D821C821B821A82DF91CF91E3
:102280000895FC0180819181009711F00C94252321
:1022900008950E946B240F931F93CF93DF93EC015B
:1022A00088819981009759F02A813B812617370749
:1022B00030F081E0DF91CF911F910F9108958B0154
:1022C0006F5F7F4F0E94AE23009759F099838883F8
:1022D0001B830A832C813D81232B59F7FC0110823B
:1022E000E8CF80E0E7CF0F931F93CF93DF93EC010C
:1022F0000C811D810F5F1F4FB8010E944B11882375
:1023000091F0288139818C819D816BE971E0820F88
:10231000931F0E9486241D830C83CE01DF91CF91F1
:102320001F910F910895CE010E942F11F6CFEF92C9
:10233000FF920F931F93CF93DF93EC01FB01E0809B
:10234000F180E114F10411F10481158101151105E9
:10235000A9F08C819D81080F191FB801CE010E9440
:102360004B11882399F0288139818C819D81B70197
:10237000820F931F0E9486241D830C83CE01DF9160
:10238000CF911F910F91FF90EF900895CE010E9481
:102390002F11F4CFEF92FF920F931F93CF93DF9300
:1023A000EC017B018A01BA010E944B1181110BC023
:1023B000CE010E942F11CE01DF91CF911F910F917D
:1023C000FF90EF9008951D830C83B7018881998158
:1023D0000E948624F0CFFB0101900020E9F731979D
:1023E000AF01461B570B0C94CA110F931F93CF9349
:1023F000DF93CDB7DEB762970FB6F894DEBF0FBE9E
:10240000CDBF8C01CB01F8011182108213821282A0
:10241000158214824AE0BE016F5F7F4F0E948421C3
:10242000BE016F5F7F4FC8010E94EB1162960FB62D
:10243000F894DEBF0FBECDBFDF91CF911F910F91FA
:1024400008950F931F93CF93DF9300D000D000D057
:10245000CDB7DEB78C01CE0101960E94F51161E087
:1024600080EE96E00E94620E8BE39FE10197F1F708
:1024700080E00E946A0EF80144815581608171817B
:1024800080EE96E00E94CC0081E00E946A0E4D81B1
:102490005E8169817A8180EE96E00E94CC0068EED0
:1024A00073E080E090E00E94AF02CE0101960E94AE
:1024B000411126960FB6F894DEBF0FBECDBFDF9157
:1024C000CF911F910F910895CF93DF93EC01FB0102
:1024D0008617970749F0608171816115710541F098
:1024E000448155810E94CA11CE01DF91CF91089598
:1024F0000E942F11F9CFFC011182108213821282E7
:10250000158214820C9464123F924F925F926F92E4
:102510007F928F929F92AF92BF92CF92DF92EF9273
:10252000FF920F931F93CF93DF93CDB7DEB72B9717
:102530000FB6F894DEBF0FBECDBF7C01FE01319611
:10254000CE010C966F0130E231938E179F07E1F7B1
:10255000DA0130E087E09D91B92E992309F43CC05F
:102560009E32F1F48A30C9F480E02B960FB6F894CD
:10257000DEBF0FBECDBFDF91CF911F910F91FF90B6
:10258000EF90DF90CF90BF90AF909F908F907F9013
:102590006F905F904F903F90089538E08AE0DBCFD6
:1025A000E8E6F0E04491442321F031969413FACF09
:1025B000DBCF8317C8F24FED490F4E35A8F64FE930
:1025C000490F4A3118F440EEB42EB90EF601E30F6C
:1025D000F11DB0823F5FBFCF8981803229F2322E58
:1025E0008B01DB015B968D919C915C97F701948F39
:1025F000838F16961D921D921D921C921997FB01B6
:102600001286138614861586F80182859385A48523
:10261000B585438954896589768984179507A60706
:10262000B70708F04DC025E0B695A7959795879513
:102630002A95D1F7F82FFF70AF2ED80115968C91FF
:10264000823008F491CFC8010E94070D97FD8CCF0E
:10265000F80182859385A485B5854F96A11DB11D8E
:1026600082879387A487B587F0E2AF9EB0011124DB
:102670006E507C4F6115710509F476CFDB018C91AA
:10268000882341F0853E09F058C0BB2029F0BB24C7
:10269000B394BACFB1100EC0F701A28A80910001A5
:1026A00090910101A0910201B09103018687978763
:1026B000A08BB18BDB018C918111E9CFBB24B3944A
:1026C000832D8271823109F04FCFBB2009F443C0C2
:1026D000C7010E944205009709F446CF20E2FC01A1
:1026E00011922A95E9F72BE0F601DC0101900D9299
:1026F0002A95E1F721E238E2DC0151963C932E93D2
:10270000509740E058E01F965C934E931E97539667
:102710003C932E93529759963C932E9358975796E5
:102720005C934E93569781E00E94CD04882309F470
:102730001BCF432DF70162890AC04BE050E0C60170
:102740000E947024892B09F05FCF432D6A2DC701A9
:102750000E941E100ACFF8018581823009F404CF4F
:10276000C8010E94FA08882309F4FECED8015B96BE
:10277000ED91FC915C9716968D909D90AD90BC90DC
:102780001997B2E08B1A9108A108B108858504C099
:10279000880C991CAA1CBB1C8A95D2F78685978544
:1027A000A089B189880E991EAA1EBB1E84812401AE
:1027B0003501480E511C611C711C481459046A04EF
:1027C0007B0409F1E1E04E1A51086108710881E0CB
:1027D0000E94CD04882309F4C7CEE2EFF3E0119202
:1027E00082EF95E08E179F07D1F74092000150923B
:1027F000010160920201709203018091B90381602E
:102800008093B903DACFD8015B96ED91FC912585D1
:1028100080E092E0A0E0B0E004C0880F991FAA1FFA
:10282000BB1F2A95D2F7F8014389548965897689B7
:10283000840F951FA61FB71F838B948BA58BB68B18
:10284000D70152961C9282EF93E048CFEF92FF920D
:102850000F931F93CF93DF93EC017B018A011B82BF
:102860001A8288EE93E0A0E0B0E08C839D83AE8373
:10287000BF838CE491E0998388838DE190E00E948E
:1028800089229A8F898F009779F02DE1F701DC0179
:1028900001900D922A95E1F74CE050E0B801CE018D
:1028A0000C960E948D24188EDF91CF911F910F916D
:1028B000FF90EF900895CF92DF92FF920F931F93B6
:1028C000CF93DF93CDB7DEB7C755D1090FB6F894D4
:1028D000DEBF0FBECDBF8C01F62E1C821B828CE2A8
:1028E000C82E81E0D82EDA82C9821E82CE010196DE
:1028F0000E941208BE016F5F7F4FCE01CB960E94EF
:102900004B0C19A218A2DF8ECE8E1BA221968FAD82
:102910002197811122C0F8011382128288EE93E080
:10292000A0E0B0E084839583A683B7838CE491E034
:1029300091838083128E118E1486C801C95ADF4F8D
:102940000FB6F894DEBF0FBECDBFDF91CF911F91C0
:102950000F91FF90DF90CF9008952F2D4AE252E023
:10296000BE01655C7F4FCE014E960E948412882383
:1029700091F2CE01CB960E94920A8F2D86708630FE
:1029800041F449A95AA96BA97CA9CE014E960E948F
:102990006608BE01625E7F4FCE0101960E944B0C1D
:1029A0004AE252E0BE016F5F7F4FC8010E942614C9
:1029B000C4CF1F93CF93DF9385ED8093BC008091AC
:1029C000490390914A03A0914B03B0914C030796A1
:1029D000A11DB11D23E0B695A795979587952A95DA
:1029E000D1F72091BC0024FD03C01092910352C086
:1029F0004091490350914A0360914B0370914C03FD
:102A0000452B462B472B69F30097A105B10541F0F3
:102A100025E32A95F1F700000197A109B109E1CF5B
:102A200080914803C1E0C0934703882399F1D09176
:102A3000B8001091BA008091BC008A7B8093BC00E2
:102A400060E082E10E942B0260E083E10E942B02A1
:102A500010929103C09393031092920361E082E17C
:102A60000E942B0261E083E10E942B028091B90059
:102A70008E7F8093B9008091B9008D7F8093B900DB
:102A800088E48093B80085E48093BC001093BA007A
:102A9000D093B800DF91CF911F9108951F920F92AC
:102AA0000FB60F9211242F933F934F935F936F9321
:102AB0007F938F939F93AF93BF93EF93FF9382EF97
:102AC00095E00E944A01FF91EF91BF91AF919F91D4
:102AD0008F917F916F915F914F913F912F910F90C7
:102AE0000FBE0F901F9018951F920F920FB60F9266
:102AF00011242F938F939F93EF93FF93E0910206FE
:102B0000F09103068081E0910806F091090682FDAC
:102B10001BC0908180910B068F5F8F7320910C06F4
:102B2000821741F0E0910B06F0E0EE50FA4F958FDE
:102B300080930B06FF91EF919F918F912F910F90B2
:102B40000FBE0F901F9018958081F4CF1F920F92A7
:102B50000FB60F9211242F933F938F939F93AF93B0
:102B6000BF938091BF039091C003A091C103B09126
:102B7000C2033091BE0323E0230F2D3758F5019691
:102B8000A11DB11D2093BE038093BF039093C0038A
:102B9000A093C103B093C2038091C3039091C40377
:102BA000A091C503B091C6030196A11DB11D8093EC
:102BB000C3039093C403A093C503B093C603BF910E
:102BC000AF919F918F913F912F910F900FBE0F90DA
:102BD0001F90189526E8230F0296A11DB11DD2CF94
:102BE0001F920F920FB60F9211242F933F934F9382
:102BF0005F936F937F938F939F93AF93BF93EF9365
:102C0000FF938091B900887F803609F44AC0F0F5BF
:102C1000883209F4A5C018F5803109F499C0B8F4D8
:102C2000882309F4F5C0883009F492C0FF91EF9130
:102C3000BF91AF919F918F917F916F915F914F91D4
:102C40003F912F910F900FBE0F901F9018958831D4
:102C500009F486C0803251F78093900314C0803409
:102C600009F49BC040F48033B9F38833F9F68093BC
:102C7000900385ECAEC0803509F483C0883509F433
:102C800094C0883499F60E94D914D0CF883909F4B9
:102C90008AC038F5883729F050F4883611F080372B
:102CA00029F683E08093910310928F0355C08838F2
:102CB00009F479C0803919F0803809F0B7CF8091D4
:102CC0008F03803208F06FC0E0918F0381E08E0F98
:102CD00080938F038091BB00F0E0E159FC4F80832B
:102CE0003BC0803B39F0D0F4803A09F477C0883A91
:102CF00009F09CCF84E08093910310926E031092B0
:102D00006D03F0E0E0E0099580916D0381110FC043
:102D100081E080936D0310924D0309C0803C09F45B
:102D2000A8CF883C09F4A5CF883B09F07FCFE0917C
:102D30006E0381E08E0F80936E03F0E0E35BFC4F47
:102D400080818093BB0090916E0380916D0329C0B8
:102D50008091B6038093BB0085EC8093BC0066CF66
:102D60009091B5038091B403981758F5E091B5039D
:102D700081E08E0F8093B503F0E0EC56FC4F80812C
:102D8000E9CFE091B50381E08E0F8093B503809188
:102D9000BB00F0E0EC56FC4F80839091B50380912E
:102DA000B4039817C8F285E8D8CFE091B50381E065
:102DB0008E0F8093B5038091BB00F0E0EC56FC4F82
:102DC00080838091930381115ECF81E08093920391
:102DD00084EA8093BC001092910328CF85EC809305
:102DE000BC001092910380918F03803230F4E09107
:102DF0008F03F0E0E159FC4F108260918F0370E087
:102E00008FE693E0F0E0E0E0099510928F030ECF9B
:102E10001092900338CFCF93C82F61E00E945902DF
:102E200060E08C2F0E942B02EC2FF0E0E655FF4F64
:102E3000E491F0E0EE0FFF1FE056FF4F8591949173
:102E4000CF910895CF93DF93E2EFF5E013821282E2
:102E500088EE93E0A0E0B0E084839583A683B783F7
:102E60002AE131E03183208325EC30E03587248767
:102E700024EC30E03787268720EC30E0318B208B44
:102E800021EC30E0338B228B22EC30E0358B248B2D
:102E900026EC30E0378B268B118E128E138E148E1B
:102EA000EFE8F6E020E520831182E1E9F6E0158203
:102EB00016821186138642E050E060E070E044879D
:102EC00055876687778713A215A614A62CE231E0F2
:102ED00033A722A717A6E6EFF6E0138212828483B7
:102EE0009583A683B7838CE491E091838083128ECF
:102EF000118E1486C0EED6E01B821A8288E391E020
:102F0000998388831C8686E00E940B179E878D8795
:102F1000E4ECF0E0E491EF8787E00E940B17998BD7
:102F2000888BE5ECF0E0E491EA8B85E00E940B17DA
:102F30009C8B8B8BE3ECF0E0E491ED8B1C82EAED53
:102F4000F6E011821082138212821582148250E000
:102F500040E06CE571E0CF01DF91CF910C94CA1194
:102F6000CF93DF93CDB7DEB7C75BD1090FB6F89427
:102F7000DEBF0FBECDBF789484B5826084BD84B5BA
:102F8000816084BD85B5826085BD85B5816085BD64
:102F900080916E00816080936E001092810080911C
:102FA00081008260809381008091810081608093A4
:102FB0008100809180008160809380008091B100C9
:102FC00084608093B1008091B00081608093B000F4
:102FD00080917A00846080937A0080917A00826088
:102FE00080937A0080917A00816080937A0080914A
:102FF0007A00806880937A001092C100E091020606
:10300000F091030682E08083E091FE05F091FF05D8
:103010001082E0910006F09101068FEC80831092FF
:103020000A06E0910606F091070686E08083E091AB
:103030000406F0910506808180618083E09104069A
:10304000F0910506808188608083E0910406F0910C
:103050000506808180688083E0910406F091050672
:1030600080818F7D80838091C006882321F08BEB47
:1030700096E00E94920A10929C0610929A06109274
:1030800097061092960684E0809395060E94E102CE
:103090008B0161E0809195060E94590261E0809168
:1030A00095060E942B02FFB6F8948091C703811108
:1030B00027C0E4EBF0E08491E8ECF0E09491E82F95
:1030C000F0E0EE0FFF1FEA56FF4FA591B491EC918F
:1030D000E92321F461E08AE00E942B0261E08AE0AA
:1030E0000E9459028CB580618CBD8CB580648CBD0A
:1030F00061E08DE00E94590261E08BE00E9459027C
:103100008091C7038F5F8093C703FFBE82E58093E2
:103110008F061092900680918F06909190060E94E3
:1031200023037AE0F72E8FEF0E94FE02FA94F1104B
:10313000FACF81E996E00E94260320E030E0A90161
:1031400060E081E996E00E943C03F82E80939B06A4
:1031500021E08217A9F00E94E102601B710B613D22
:10316000774058F381E08093960681E996E00E94CB
:10317000F3026DE571E082EF95E00E941B11FFCF35
:103180002AEA31E040E050E068E081E996E00E9400
:103190003C0382FF2AC0F0929C0680919C06812C01
:1031A000912CA12C50E4B52E823019F0812C912C59
:1031B000540120E030E0A90167E381E996E00E9434
:1031C0003C03A501940169E281E996E00E943C0379
:1031D00080939B068823D1F00E94E102601B710B53
:1031E000613D774030F388E0BECF64E0F62E0E9468
:1031F000050380939B06FA94F110F9CF8A3A11F0F7
:1032000082E0B1CF82E080939C06C7CF80919C067C
:103210008230D1F420E030E0A9016AE381E996E050
:103220000E943C03882311F086E09DCF0E94050395
:10323000807C803C19F483E080939C060E94050307
:103240000E9405030E94050381E996E00E94F302B3
:1032500080E580938F061092900681E00E945B05C6
:10326000882309F489C08BEB96E00E94120888231A
:1032700009F47FCFCC57DF4F19821882C458D04051
:103280008CE291E0CE57DF4F99838883C258D040BB
:10329000C957DF4F1882C758D040A9961FAE1EAE3F
:1032A000A997A7969FAF8EAFA797AB961FAEAB9788
:1032B000B12CA12CBE016E577F4F7B010BEB16E0AA
:1032C0008B2D9A2DFC01E65DFD4F20812F3209F4F4
:1032D0000196DC01A65DBD4FFE01E156FF4F30E0D7
:1032E00020E0AF016D916F3249F0662339F001960D
:1032F0002F5F3F4F61932C303105A1F7240F351F0D
:10330000F9011082FC01E65DFD4F20812F3209F4A6
:103310000196B82EA92E865D9D4FFC0180818111FA
:1033200060C61C821B828CE291E09A8389831E8294
:1033300022E0B801CE0101960E948412882399F000
:10334000CE0101960E948B0F882369F0CE01019671
:103350000E944205009739F025EEFC0120831E8271
:1033600081E00E94CD04F6E00B3B1F0709F44DC637
:10337000C8010E94920A49C680E00E945B0588232A
:1033800009F4F7CE70CF6BEE71E082EF95E00E940A
:103390001B1186C680910F0790911007009761F06E
:1033A0000E94920A80910F07909110070E94252396
:1033B0001092100710920F077801C701801B910B24
:1033C000A816B90644F0F70161917F0182EF95E0FC
:1033D0000E946C01F2CF6BE971E0C8010E94582194
:1033E0008C010E943A219093D3038093D20301155C
:1033F000110529F0B80182EF95E00E940C1132E02E
:10340000A32EB12CEE24E394F12C6BE971E090E053
:1034100080E00E9458218C0141E0E416F10489F417
:103420000E943A219093D5038093D403011511058E
:1034300009F05BC0FFEFEF1AFF0A2FEFA21AB20AE2
:10344000E4CF52E0E516F10439F40E943A2190935A
:10345000D7038093D603EACF63E0E616F10439F48C
:103460000E943A219093D9038093D803DFCF74E070
:10347000E716F10439F40E943A219093DB0380931C
:10348000DA03D4CF87E0E816F10441F4C8010E94C2
:103490003A219093E9038093E803C8CF9BE0E916B3
:1034A000F10441F4C8010E943A219093EB03809308
:1034B000EA03BCCFEFE0EE16F10441F4C8010E942C
:1034C0003A219093ED038093EC03B0CFF3E1EF1634
:1034D000F10441F4C8010E943A219093EF038093D4
:1034E000EE03A4CF0115110529F0B80182EF95E094
:1034F0000E940C1125E1A216B10409F09BCF60E0F7
:1035000082E00E94590261E083E00E94590261E07A
:1035100089E00E94590261E08AE00E94590261E05C
:1035200088E00E94590260E08AE00E942B0220E0BD
:1035300042E060E180EE96E00E94AC0E60E083E045
:103540000E942B0260E089E00E942B0261E089E08A
:103550000E942B0261E083E00E942B02F12CE12CFF
:1035600095E0992E24E1822E82E00E9402020197CA
:1035700019F5E114F10409F0E2C063E372E08AEDA9
:1035800096E00E94EB110091D0031091D1030F5FE0
:103590001F4F1093D1030093D0036AED76E0CE0164
:1035A00001960E947B12B801CE0101960E94211261
:1035B000CE0101960E94411160E089E00E942B0239
:1035C00061E089E00E942B024FEFE41AF40A56E012
:1035D000E516F10449F660E083E00E942B0260E00A
:1035E00089E00E942B0261E089E00E942B0261E0E9
:1035F00083E00E942B02912C812C82E00E94020227
:10360000019709F00EC26FE08616910409F09DC182
:103610000091E6031091E7038091E8039091E9039C
:10362000181619060CF07BC10F5F1F4F1093E703AC
:103630000093E6036FE772E08AED96E00E94EB11DB
:103640006AED76E0CE0101960E947B12B801CE01B0
:1036500001960E942112CE0101960E944111809193
:10366000E8039091E90301979093E9038093E803BD
:103670006AE08616910409F0D4C169E373E08AED2B
:1036800096E00E94EB118091E8039091E90320916C
:10369000E6033091E703820F931F9093E903809331
:1036A000E8038091EA039091EB032091E4033091C9
:1036B000E503820F931F9093EB038093EA038091BD
:1036C000EC039091ED032091E2033091E303820F2C
:1036D000931F9093ED038093EC038091EE03909100
:1036E000EF032091E0033091E103820F931F909349
:1036F000EF038093EE031092DF031092DE0310922B
:10370000E7031092E6031092E5031092E40310928F
:10371000E3031092E2031092E1031092E0036AEDDA
:1037200076E0CE0101960E947B1270E060E0A3C1BA
:1037300064E172E082EF95E00E941B11E0CE41E06F
:10374000E416F10489F46EE372E08AED96E00E94DB
:10375000EB110091CE031091CF030F5F1F4F109319
:10376000CF030093CE0319CF52E0E516F10489F49C
:103770006AE472E08AED96E00E94EB110091CC03BE
:103780001091CD030F5F1F4F1093CD030093CC0317
:1037900004CF63E0E616F10489F466E572E08AED91
:1037A00096E00E94EB110091CA031091CB030F5FCA
:1037B0001F4F1093CB030093CA03EFCEA090C80312
:1037C000B090C90374E0E716F104A9F462E672E070
:1037D0008AED96E00E94EB118FEFA81AB80AB0921A
:1037E000C903A092C8036AED76E0CE0101960E945B
:1037F0007B12B501D9CE8091D0039091D103989ED0
:103800008001999E100D11242091CE033091CF0399
:10381000EAE0E29FC001E39F900D1124080F191FF9
:103820002091CC033091CD03829EC001839E900DE8
:103830001124080F191F2091CA033091CB03F2E322
:10384000F29FC001F39F900D1124080F191F24E669
:103850002A9DC0012B9D900D1124080F191F109354
:10386000DD030093DC036FE672E08AED96E00E94D0
:10387000EB116AED76E0CE0101960E947B12B80151
:10388000CE0101960E942112CE0101960E944111A3
:103890008091D2039091D3032091D0033091D10332
:1038A000820F931F9093D3038093D2038091D4030C
:1038B0009091D5032091CE033091CF03820F931FB7
:1038C0009093D5038093D4038091D6039091D7032E
:1038D0002091CC033091CD03820F931F9093D70397
:1038E0008093D6038091D8039091D9032091CA0385
:1038F0003091CB03820F931F9093D9038093D80309
:103900008091DA039091DB032091C8033091C903C1
:10391000820F931F9093DB038093DA034DCE60E90F
:1039200072E08AED96E00E94EB116AED76E0CE013E
:1039300001960E947B12B801CE0101960E942112CD
:10394000CE0101960E94411193CE7EE0871691042C
:1039500099F50091E4031091E5038091EA039091B9
:10396000EB03181619062CF560EA72E08AED96E072
:103970000E94EB110F5F1F4F1093E5030093E403C8
:103980006AED76E0CE0101960E947B12B801CE016D
:1039900001960E942112CE0101960E944111809150
:1039A000EA039091EB0301979093EB038093EA0372
:1039B0005FCE6DEA72E0B5CF8DE08816910409F014
:1039C000ACC30091E2031091E3038091EC0390916A
:1039D000ED03181619060CF041C06AEB72E08AED8F
:1039E00096E00E94EB110F5F1F4F1093E3030093CB
:1039F000E2036AED76E0CE0101960E947B12B801E7
:103A0000CE0101960E942112CE0101960E94411121
:103A10008091EC039091ED0301979093ED038093D7
:103A2000EC0360E089E00E942B0261E089E00E94E3
:103A30002B024FEF841A940A50E18516910409F085
:103A4000DCCD80E090E0892B09F478CD0E9436012E
:103A5000882309F473CD0E94000070CD68EC72E0F9
:103A60008AED96E00E94EB116AED76E0CE010196B8
:103A70000E947B12B801CE0101960E942112CE0154
:103A800001960E944111CDCF0091E0031091E10316
:103A90008091EC039091ED031816190684F567EDFB
:103AA00072E08AED96E00E94EB110F5F1F4F1093BA
:103AB000E1030093E0036AED76E0CE0101960E94F7
:103AC0007B12B801CE0101960E942112CE0101960F
:103AD0000E9441118091EE039091EF030197909322
:103AE000EF038093EE0360E089E00E942B0261E027
:103AF00089E00E942B028DE0882E912C7ECD66EE0F
:103B000072E08AED96E00E94EB116AED76E0CE015C
:103B100001960E947B12B801CE0101960E942112EB
:103B2000CE0101960E944111DECF0E942A2164E05D
:103B300070E00E945B228C010F5F1F4F61E002303A
:103B4000110509F0D5C08AE00E942B0260ED77E0F4
:103B500080E090E00E94AF0264E073E08AED96E0BE
:103B60000E94EB116AED76E0CE0101960E947B1275
:103B700062E070E0CE0101960E942112CE01019612
:103B80000E94411163E173E08AED96E00E94EB111F
:103B90000091DC031091DD036AED76E0CE01019621
:103BA0000E947B12B801CE0101960E942112CE0123
:103BB00001960E9441118091E8039091E9032091C0
:103BC000E6033091E703820F931F9093E9038093FC
:103BD000E8038091EA039091EB032091E403309194
:103BE000E503820F931F9093EB038093EA03809188
:103BF000EE039091EF032091E0033091E103820FF7
:103C0000931F9093ED038093EC038091D2039091E6
:103C1000D3032091D0033091D103821B930B909357
:103C2000D3038093D2038091D4039091D503209144
:103C3000CE033091CF03821B930B9093D5038093D7
:103C4000D4038091D6039091D7032091CC03309177
:103C5000CD03821B930B9093D7038093D60380915F
:103C6000D8039091D9032091CA033091CB03821BD2
:103C7000930B9093D9038093D8038091DA039091AA
:103C8000DB032091C8033091C903821B930B9093EF
:103C9000DB038093DA031092D1031092D0031092C9
:103CA000CF031092CE031092CD031092CC0310924A
:103CB000CB031092CA031092C9031092C80310924A
:103CC000DD031092DC031092E7031092E6031092DA
:103CD000E5031092E4031092E3031092E2031092C2
:103CE000E1031092E00360E08AE00E942B0299CE8B
:103CF00088E00E942B0260E273E08AED96E00E9469
:103D0000EB116AED76E0CE0101960E947B12B801BC
:103D1000CE0101960E942112CE0101960E9441110E
:103D2000E090DC03F090DD038091DE039091DF03EF
:103D3000E81AF90A24E6E216F1040CF498C020917E
:103D4000DA033091DB032115310509F4B4C0C70152
:103D500064E670E00E945B223B01261B370B309328
:103D6000DB032093DA032CE926038001279F100D43
:103D700011240E0D1F1D0115110509F079C0CE018A
:103D800001960E94F511B101CE018B599F4F0E94FF
:103D9000F511B201CE018E579F4F0E94F511B60169
:103DA000CE0181569F4F0E94F51170E060E0CE0178
:103DB0008E549F4F0E94F511BE016E547F4FCE016D
:103DC00084559F4F0E947B12CE0184559F4F0E94C5
:103DD0007311BE0161567F4F0E9497110E947311AB
:103DE000BE016E577F4F0E9497110E947311BE0152
:103DF0006B597F4F0E9497110E947311BE016F5F34
:103E00007F4F0E949711BC018AED96E00E946412D8
:103E1000CE0184559F4F0E944111CE018E549F4F79
:103E20000E944111CE0181569F4F0E944111CE0147
:103E30008E579F4F0E944111CE018B599F4F0E9478
:103E40004111CE0101960E9441116AED76E0CE014A
:103E500001960E947B12B701CE0101960E942112A9
:103E6000CE0101960E94411160E088E03ECF8701BB
:103E70000233110514F12091D8033091D903211593
:103E80003105F1F0C80162E370E00E945B221B0182
:103E9000261B370B3093D9032093D8032EEC26032F
:103EA000C001279F900D1124080F191F011511053E
:103EB00021F4B30164CF8701DECF04311105F4F0A2
:103EC0002091D6033091D70321153105D1F0C801D7
:103ED00064E170E00E945B222B01261B370B3093BC
:103EE000D7032093D6032CEE2603C001279F900D05
:103EF0001124080F191F01151105D9F20A301105F7
:103F00001CF12091D4033091D50321153105F9F02E
:103F1000C8016AE070E00E945B226B0146EF460335
:103F2000C001479F900D1124080F191F261B370B46
:103F30003093D5032093D4030115110509F4B9CFAB
:103F40000530110524F43FC005301105C4F120915E
:103F5000D2033091D3032115310509F485CFC8016F
:103F600065E070E00E945B225B01261B370B3093FB
:103F7000D3032093D2032BEF2603C001279F900D7C
:103F80001124080F191F012B09F06ECFB301CE01C8
:103F900001960E94F511B101CE018B599F4F0E94ED
:103FA000F511B201CE018E579F4F0E94F511B60157
:103FB000CE0181569F4F0E94F511B501F8CE011533
:103FC000110509F451CF69E273E08AED96E00E9491
:103FD000EB116AED76E0CE0101960E947B12B801EA
:103FE0003BCFF7018581811192C021E0B801C70163
:103FF0000E948412982E26E00B3B120709F47BC026
:10400000C8010E94920A91107CC067E18E010F5F87
:104010001F4FC8010E945B14C8010E949500E091E7
:104020000F07F0911007309709F4ADC985818823F7
:1040300009F4A9C96EE671E082EF95E00E941B11B8
:104040006EE871E086EF96E00E941B116DE971E069
:1040500086EF96E00E941B1161EB71E086EF96E01F
:104060000E941B1163EC71E086EF96E00E941B1129
:1040700067ED71E086EF96E00E941B1180910F07BB
:1040800090911007009761F00E94920A80910F07AB
:10409000909110070E9425231092100710920F078D
:1040A00061E0C8010E945B14C8010E949500E09184
:1040B0000F07F0911007309709F43ACB85818823D8
:1040C00009F436CB6AE072E082EF95E00E941B11A2
:1040D00078015701A01AB10A86EF96E00E94A40C5D
:1040E000892B09F457C986EF96E00E94270EF70145
:1040F00081937F01EECF882309F487CF8E010B597E
:104100001F4F902F812F8701E92EF82ED9C826E066
:104110000B3B120709F02CC978CF4CE084169104B0
:1041200009F4B2CC5BE08516910409F0A1CA809134
:10413000E6039091E703EFE0E89F8001E99F100D0F
:1041400011248091DE039091DF03080F191F209145
:10415000E4033091E503FAE0F29FC001F39F900D74
:104160001124080F191F2091E2033091E30345E069
:10417000429FC001439F900D1124080F191F2091E9
:10418000E0033091E10342E3429FC001439F900D61
:104190001124080F191F1093DF030093DE03809191
:1041A000DC039091DD03801791070CF0BECC65EF26
:1041B00072E056CC8AED96E00C9441118F929F925A
:1041C000AF92BF92CF92DF92EF92FF92CF93DF93A5
:1041D000EC01688179818A819B8161157105810576
:1041E000910521F464E279ED8BE597E02DE133EF61
:1041F00041E050E00E94C12149015A019B01AC01FC
:10420000A7EAB1E40E94E0216B017C01ACEEB4EFBF
:10421000A50194010E94EE21DC01CB018C0D9D1DB6
:10422000AE1DBF1DB7FF03C00197A109B048888329
:104230009983AA83BB839F77DF91CF91FF90EF9003
:10424000DF90CF90BF90AF909F908F9008950E9485
:10425000DE20089584E091E00E94DE200895B0E021
:10426000A0E08093040190930501A0930601B09310
:1042700007010895FC0188279927E89421912032AD
:10428000E9F3293010F02E30C8F32B3241F02D32F3
:1042900039F4689404C00E948F21820F911D2191EE
:1042A00020532A30C0F31EF4909581959F4F0895B6
:1042B00041E157E00E945D210895FA01A191B0818A
:1042C000009719F41097E1F0CD01DC01CD010D90BC
:1042D000002011F4C00113C0FB012191222319F029
:1042E0002015D9F7F3CFFB012191201519F41E9267
:1042F000119606C02223C1F70D900020A1F7D0012E
:10430000FA01A193B0830895BB274A3031F4992371
:1043100022F4BDE2909581959F4F0C9498217AE00C
:10432000979F902D879F802D910D11240895BB2775
:10433000FB015527AA27880F991FAA1FA41710F061
:10434000A41B83955051B9F7A05DAA3308F0A95D6D
:10435000A193009779F7B111B1931192CB010C940D
:10436000B121DC01FC01672F71917723E1F73297CE
:1043700004C07C916D9370836291AE17BF07C8F340
:104380000895052E97FB1EF400940E94D82157FD36
:1043900007D00E942A2207FC03D04EF40C94D821A7
:1043A00050954095309521953F4F4F4F5F4F089561
:1043B00090958095709561957F4F8F4F9F4F089591
:1043C0000E944C22A59F900DB49F900DA49F800D3C
:1043D000911D11240895B7FF0C94E0210E94E02163
:1043E000821B930B08952F923F924F925F926F9290
:1043F0007F928F929F92AF92BF92CF92DF92EF9275
:10440000FF920F931F93CF93DF93CDB7DEB7CA1BF5
:10441000DB0B0FB6F894DEBF0FBECDBF09942A8820
:10442000398848885F846E847D848C849B84AA84C8
:10443000B984C884DF80EE80FD800C811B81AA8155
:10444000B981CE0FD11D0FB6F894DEBF0FBECDBF20
:10445000ED010895A1E21A2EAA1BBB1BFD010DC0A0
:10446000AA1FBB1FEE1FFF1FA217B307E407F50724
:1044700020F0A21BB30BE40BF50B661F771F881F00
:10448000991F1A9469F760957095809590959B0196
:10449000AC01BD01CF010895A29FB001B39FC0013F
:1044A000A39F700D811D1124911DB29F700D811D60
:1044B0001124911D089597FB072E16F4009407D040
:1044C00077FD09D00E946F2207FC05D03EF490953D
:1044D00081959F4F0895709561957F4F0895AA1B10
:1044E000BB1B51E107C0AA1FBB1FA617B70710F0DF
:1044F000A61BB70B881F991F5A95A9F78095909511
:10450000BC01CD010895EE0FFF1F0590F491E02D41
:1045100009940F931F93CF93DF938230910510F48A
:1045200082E090E0E0911507F091160730E020E07E
:10453000B0E0A0E0309799F42115310509F44AC0A4
:10454000281B390B24303105D8F58A819B816115F0
:10455000710589F1FB0193838283FE0111C04081C3
:1045600051810281138148175907E0F04817590714
:1045700099F4109761F012960C93129713961C936E
:104580003296CF01DF91CF911F910F910895009343
:10459000150710931607F4CF2115310551F0421776
:1045A000530738F0A901DB019A01BD01DF01F801D1
:1045B000C1CFEF01F9CF9093160780931507CDCFA8
:1045C000FE01E20FF31F8193919322503109398349
:1045D0002883D7CF2091130730911407232B41F460
:1045E00020910A0130910B01309314072093130797
:1045F00020910801309109012115310541F42DB7B1
:104600003EB740910C0150910D01241B350BE091F8
:104610001307F0911407E217F307A0F42E1B3F0BCA
:104620002817390778F0AC014E5F5F4F2417350724
:1046300048F04E0F5F1F5093140740931307819368
:1046400091939FCFF0E0E0E09CCFCF93DF93009772
:10465000E9F0FC01329713821282A0911507B09104
:104660001607ED0130E020E01097A1F420813181A0
:10467000820F931F209113073091140728173907D1
:1046800009F061C0F0931407E0931307DF91CF9115
:104690000895EA01CE17DF07E8F54A815B819E01A4
:1046A00041155105B1F7E901FB83EA83499159911D
:1046B000C40FD51FEC17FD0761F48081918102962C
:1046C000840F951FE90199838883828193819B835D
:1046D0008A83F0E0E0E012968D919C911397009709
:1046E000B9F52D913C911197CD010296820F931F40
:1046F00020911307309114072817390739F630979E
:1047000051F51092160710921507B0931407A09355
:104710001307BCCFD383C28340815181840F951F7F
:10472000C817D90761F44E5F5F4F88819981480FA0
:10473000591F518340838A819B81938382832115F2
:10474000310509F0B0CFF0931607E09315079ECF1F
:10475000FD01DC01C0CF13821282D7CFB0E0A0E010
:10476000E4EBF3E20C94F5218C01009751F4CB01BA
:104770000E9489228C01C801CDB7DEB7E0E10C941C
:104780001122FC01E60FF71F9C0122503109E217AC
:10479000F30708F49DC0D901CD91DC911197C6179C
:1047A000D70798F0C530D10530F3CE0104978617AE
:1047B000970708F3C61BD70B2297C193D1936D932C
:1047C0007C93CF010E942523D6CF5B01AC1ABD0A92
:1047D0004C018C0E9D1EA0911507B0911607512C0F
:1047E000412CF12CE12C109731F580911307909119
:1047F00014078815990509F05CC04616570608F09D
:1048000058C08091080190910901009741F48DB73B
:104810009EB740910C0150910D01841B950BE81738
:10482000F90708F055C0F0931407E0931307F90156
:1048300071836083A0CF8D919C91119712966C909B
:10484000129713967C901397A815B90559F56C012A
:1048500042E0C40ED11CCA14DB0420F1AC014A1999
:104860005B09DA011296159780F062827382518398
:104870004083D9016D937C93E114F10471F0D70169
:104880001396FC93EE93129776CF22968C0F9D1F72
:10489000F90191838083F301EFCFF0931607E09342
:1048A000150769CF4816590608F42C017D01D3017C
:1048B0009ACFCB010E9489227C01009749F0AE017A
:1048C000B8010E947D24C8010E942523870153CF8F
:1048D00010E000E050CF81E090E0F8940C949C242C
:1048E000FB01DC0104C08D910190801921F441503D
:1048F0005040C8F7881B990B0895FB01DC0102C0EA
:1049000001900D9241505040D8F70895FB01DC0111
:1049100001900D920020E1F70895FB01DC01415068
:10492000504048F001900D920020C9F701C01D923F
:1049300041505040E0F7089510E0CAE6D0E004C0CE
:10494000FE010E9483222196CB36D107C9F7F89445
:02495000FFCF97
:10495200FFFFFFFF0100000000001707800000407A
:10496200145400401050000000006C01CC00F9000B
:10497200B9012A0108011C01000000003A0CCC0018
:10498200340A360F00000000570ECC00880F360F95
:10499200AC0E560E550ED61000000000F10CD40CD1
:1049A200C40C9B0CA40C270E310E0D0A0042616749
:1049B2006C616E6D61204861746173C4B10074658D
:1049C20073742E74787420646F73796173696E6185
:1049D2002079617A646972696C69796F7200323028
:1049E2002C32302C31302C33302C352C00312C6BC6
:1049F2006F70756B6C656D652C332C3135746C2C56
:104A020000322C79696B616D612C35302C31307438
:104A12006C2C00332C6B7572756C616D612C3130AE
:104A2200302C35746C2C00342C63696C616C616DB4
:104A3200612C32302C3530746C2C00746573742EFA
:104A4200747874206163696C69726B656E20686149
:104A52007461206F6C7573747500746573742E7451
:104A620078743A006163696C69726B656E20686183
:104A72007461206F6C7573747520746573742E7411
:104A820078740035546C2061646574693A00313081
:104A9200546C2061646574693A003230546C206150
:104AA200646574693A003530546C206164657469D8
:104AB2003A00313030546C2061646574693A0042C6
:104AC20069747469202C2042616B6979653A004BE4
:104AD2006F70756B6C656D6520313520546C3A00D2
:104AE2004B6F70756B6C656D6520626974746900DB
:104AF20059696B616D61203130546C3A0059696BB0
:104B0200616D61206269747469004B7572756C61C4
:104B12006D612035546C3A004B7572756C616D6134
:104B22002062697474690043696C616D616D612012
:104B32003530546C3A0043696C616C616D6120627E
:104B42006974746900485F426564656C69204173E9
:104B520074693A004961646520596170696C6979C8
:104B62006F7200546F706C616D20496164653A0028
:104B72004261736172696C690062616B6979652077
:104B8200796574657273697A00527365746C656EC7
:064B920069796F723A0020
:00000001FF
